{
  "contractName": "MyBank",
  "abi": [
    {
      "anonymous": false,
      "inputs": [
        {
          "indexed": true,
          "internalType": "address",
          "name": "onwer",
          "type": "address"
        },
        {
          "indexed": false,
          "internalType": "uint256",
          "name": "amount",
          "type": "uint256"
        }
      ],
      "name": "Deposit",
      "type": "event"
    },
    {
      "anonymous": false,
      "inputs": [
        {
          "indexed": true,
          "internalType": "address",
          "name": "onwer",
          "type": "address"
        },
        {
          "indexed": true,
          "internalType": "address",
          "name": "to",
          "type": "address"
        },
        {
          "indexed": false,
          "internalType": "uint256",
          "name": "amount",
          "type": "uint256"
        }
      ],
      "name": "Transfer",
      "type": "event"
    },
    {
      "anonymous": false,
      "inputs": [
        {
          "indexed": true,
          "internalType": "address",
          "name": "onwer",
          "type": "address"
        },
        {
          "indexed": false,
          "internalType": "uint256",
          "name": "amount",
          "type": "uint256"
        }
      ],
      "name": "Withdraw",
      "type": "event"
    },
    {
      "inputs": [],
      "name": "totalBankAmount",
      "outputs": [
        {
          "internalType": "uint256",
          "name": "total",
          "type": "uint256"
        }
      ],
      "stateMutability": "view",
      "type": "function",
      "constant": true
    },
    {
      "inputs": [],
      "name": "_balance",
      "outputs": [
        {
          "internalType": "uint256",
          "name": "total",
          "type": "uint256"
        }
      ],
      "stateMutability": "view",
      "type": "function",
      "constant": true
    },
    {
      "inputs": [],
      "name": "deposit",
      "outputs": [],
      "stateMutability": "payable",
      "type": "function",
      "payable": true
    },
    {
      "inputs": [
        {
          "internalType": "uint256",
          "name": "amount",
          "type": "uint256"
        }
      ],
      "name": "withdraw",
      "outputs": [],
      "stateMutability": "payable",
      "type": "function",
      "payable": true
    },
    {
      "inputs": [
        {
          "internalType": "address",
          "name": "to",
          "type": "address"
        },
        {
          "internalType": "uint256",
          "name": "amount",
          "type": "uint256"
        }
      ],
      "name": "transfer",
      "outputs": [],
      "stateMutability": "payable",
      "type": "function",
      "payable": true
    }
  ],
  "bytecode": "0x6080604052600060015534801561001557600080fd5b5061099b806100256000396000f3fe60806040526004361061004a5760003560e01c80632e1a7d4d1461004f57806356c4e05a1461006b578063a9059cbb14610096578063d0e30db0146100b2578063fcf038a3146100bc575b600080fd5b61006960048036038101906100649190610616565b6100e7565b005b34801561007757600080fd5b5061008061026e565b60405161008d9190610652565b60405180910390f35b6100b060048036038101906100ab91906106cb565b6102b4565b005b6100ba6104ca565b005b3480156100c857600080fd5b506100d16105d1565b6040516100de9190610652565b60405180910390f35b806000803373ffffffffffffffffffffffffffffffffffffffff1673ffffffffffffffffffffffffffffffffffffffff168152602001908152602001600020541015610168576040517f08c379a000000000000000000000000000000000000000000000000000000000815260040161015f90610768565b60405180910390fd5b3373ffffffffffffffffffffffffffffffffffffffff166108fc829081150290604051600060405180830381858888f193505050501580156101ae573d6000803e3d6000fd5b50806000803373ffffffffffffffffffffffffffffffffffffffff1673ffffffffffffffffffffffffffffffffffffffff16815260200190815260200160002060008282546101fd91906107b7565b92505081905550806001600082825461021691906107b7565b925050819055503373ffffffffffffffffffffffffffffffffffffffff167f884edad9ce6fa2440d8a54cc123490eb96d2768479d49ff9c7366125a9424364826040516102639190610652565b60405180910390a250565b60008060003373ffffffffffffffffffffffffffffffffffffffff1673ffffffffffffffffffffffffffffffffffffffff16815260200190815260200160002054905090565b60008060008473ffffffffffffffffffffffffffffffffffffffff1673ffffffffffffffffffffffffffffffffffffffff168152602001908152602001600020541015610336576040517f08c379a000000000000000000000000000000000000000000000000000000000815260040161032d90610883565b60405180910390fd5b806000803373ffffffffffffffffffffffffffffffffffffffff1673ffffffffffffffffffffffffffffffffffffffff1681526020019081526020016000205410156103b7576040517f08c379a00000000000000000000000000000000000000000000000000000000081526004016103ae90610768565b60405180910390fd5b806000803373ffffffffffffffffffffffffffffffffffffffff1673ffffffffffffffffffffffffffffffffffffffff168152602001908152602001600020600082825461040591906107b7565b92505081905550806000808473ffffffffffffffffffffffffffffffffffffffff1673ffffffffffffffffffffffffffffffffffffffff168152602001908152602001600020600082825461045a91906108a3565b925050819055508173ffffffffffffffffffffffffffffffffffffffff163373ffffffffffffffffffffffffffffffffffffffff167fddf252ad1be2c89b69c2b068fc378daa952ba7f163c4a11628f55a4df523b3ef836040516104be9190610652565b60405180910390a35050565b6000341161050d576040517f08c379a000000000000000000000000000000000000000000000000000000000815260040161050490610945565b60405180910390fd5b6000349050806000803373ffffffffffffffffffffffffffffffffffffffff1673ffffffffffffffffffffffffffffffffffffffff168152602001908152602001600020600082825461056091906108a3565b92505081905550806001600082825461057991906108a3565b925050819055503373ffffffffffffffffffffffffffffffffffffffff167fe1fffcc4923d04b559f4d29a8bfc6cda04eb5b0d3c460751c2402c5c5cc9109c826040516105c69190610652565b60405180910390a250565b6000600154905090565b600080fd5b6000819050919050565b6105f3816105e0565b81146105fe57600080fd5b50565b600081359050610610816105ea565b92915050565b60006020828403121561062c5761062b6105db565b5b600061063a84828501610601565b91505092915050565b61064c816105e0565b82525050565b60006020820190506106676000830184610643565b92915050565b600073ffffffffffffffffffffffffffffffffffffffff82169050919050565b60006106988261066d565b9050919050565b6106a88161068d565b81146106b357600080fd5b50565b6000813590506106c58161069f565b92915050565b600080604083850312156106e2576106e16105db565b5b60006106f0858286016106b6565b925050602061070185828601610601565b9150509250929050565b600082825260208201905092915050565b7f4e6f7420656e6f756768206d6f6e657900000000000000000000000000000000600082015250565b600061075260108361070b565b915061075d8261071c565b602082019050919050565b6000602082019050818103600083015261078181610745565b9050919050565b7f4e487b7100000000000000000000000000000000000000000000000000000000600052601160045260246000fd5b60006107c2826105e0565b91506107cd836105e0565b9250828210156107e0576107df610788565b5b828203905092915050565b7f5468652064657374696e6174696f6e206163636f756e74206973206e6f74206660008201527f6f756e6420696e207468652073797374656d206f72207468652062616c616e6360208201527f6520697320696e73756666696369656e742e0000000000000000000000000000604082015250565b600061086d60528361070b565b9150610878826107eb565b606082019050919050565b6000602082019050818103600083015261089c81610860565b9050919050565b60006108ae826105e0565b91506108b9836105e0565b9250827fffffffffffffffffffffffffffffffffffffffffffffffffffffffffffffffff038211156108ee576108ed610788565b5b828201905092915050565b7f596f757220616d6f756e7420697320696e636f72726563742e00000000000000600082015250565b600061092f60198361070b565b915061093a826108f9565b602082019050919050565b6000602082019050818103600083015261095e81610922565b905091905056fea2646970667358221220485a15749469e3c1aec817cd776e8d88bafb48355505906ba46749db4c2d67c264736f6c634300080b0033",
  "immutableReferences": {},
  "source": "// SPDX-License-Identifier: MIT\n\npragma solidity ^0.8.0;\n\ncontract MyBank {\n\n    mapping(address => uint) _balances;\n\n    event Deposit(address indexed onwer, uint amount);\n    event Withdraw(address indexed onwer, uint amount);\n    event Transfer(address indexed onwer, address indexed to, uint amount);\n\n    uint private _totalBankAmount = 0;\n\n    function totalBankAmount() public view returns (uint total) {\n        return _totalBankAmount;\n    }\n\n    function _balance() public view returns (uint total) {\n        return _balances[msg.sender];\n    }\n\n    function deposit() public payable {\n        require(\n            msg.value > 0,\n            \"Your amount is incorrect.\"\n        );\n\n        uint amount = msg.value;\n        _balances[msg.sender] += amount;\n        _totalBankAmount += amount;\n        emit Deposit(msg.sender, amount);\n    }\n\n    function withdraw(uint amount) public payable {\n        require(\n            _balances[msg.sender] >= amount,\n            \"Not enough money\"\n        );\n\n        payable(msg.sender).transfer(amount);\n        _balances[msg.sender] -= amount;\n        _totalBankAmount -= amount;\n        emit Withdraw(msg.sender, amount);\n    }\n\n    function transfer(address to, uint amount) public payable {\n        require(\n            _balances[to] >= 0,\n            \"The destination account is not found in the system or the balance is insufficient.\"\n        );\n\n        require(\n            _balances[msg.sender] >= amount,\n            \"Not enough money\"\n        );\n\n        _balances[msg.sender] -= amount;\n        _balances[to] += amount;\n        emit Transfer(msg.sender, to, amount);\n    }\n}\n",
  "sourcePath": "/Users/OOKBEE/Desktop/MyBank/contracts/MyBank.sol",
  "compiler": {
    "name": "solc",
    "version": "0.8.11+commit.d7f03943.Emscripten.clang"
  },
  "schemaVersion": "3.4.5",
  "updatedAt": "2022-02-22T11:11:24.483Z",
  "networkType": "ethereum",
  "devdoc": {
    "kind": "dev",
    "methods": {},
    "version": 1
  },
  "userdoc": {
    "kind": "user",
    "methods": {},
    "version": 1
  }
}